:400000000010002011000000F5040000F504000010B500F08FFAC04670B5144C23688022D20213432360182000F02EFD2268104B134023600F4A104B1A6010230F4A1360AF
:400040000F4A1360802212060E4B1A60002525600D4A0E4B1A600E49092000F0F9FC092000F0DAFC0B4B1D6070BDC04600010B40FFFFFBFF0600008004010B40200202407B
:400080002802024008010B401700008000000240850D00000C020B4010B572B60122224B1A7000240FE021486200131959000B00411889881A5AC31858880004104300F067
:4000C00013FA0134E4B2012CEDD9184801000C31403000F0EFF9164A164B1A6099231B04154A1360154A136080221205144B1A601D22144B1A600132134B1A60134A1178FA
:4001000006230B43DBB21370FF22114B1A60114A114B1A60B022114B1A60114A114B1A60FFF77AFF10BDC0461C700F403C18000000EE38000C00014000500F4030500F40E5
:4001400038500F402000004000800F4000700F4000000440B66DDB000800044000030440806DC3000803044010B5064C2378002B07D1054B002B02D0044800E000BF0123D5
:40018000237010BD480100200000000028180000084B10B5002B03D00749084800E000BF07480368002B00D110BD064B002BFBD09847F9E7000000004C01002028180000AB
:4001C000C000002000000000024A1368013313607047C0466401002010B5354B1B789B0703D5002000F0EAF902E0012000F0E6F92F4B1B785B0703D5002000F05FFA02E0C6
:40020000012000F05BFA2A4B1B781B0703D5002000F060FA02E0012000F05CFA244B1B78DB0603D5002000F061FA02E0012000F05DFA1F4B1B789B0603D5002000F0C8FAEB
:4002400002E0012000F0C4FA194B1B785B0603D5002000F057FA02E0012000F053FA144B1B787F22934303D0002000F057FA02E0012000F053FA0E4B5B78DB0703D5002019
:4002800000F058FA02E0012000F054FA084B5B789B0703D5002000F059FA02E0012000F055FA9620400000F0A5F900F08BFA10BDD001002010B5354B1B789B0703D500204D
:4002C00000F07CF902E0012000F078F92F4B1B785B0703D5002000F0F1F902E0012000F0EDF92A4B1B781B0703D5002000F0F2F902E0012000F0EEF9244B1B78DB0603D589
:40030000002000F0F3F902E0012000F0EFF91F4B1B789B0603D5002000F05AFA02E0012000F056FA194B1B785B0603D5002000F0E9F902E0012000F0E5F9144B1B787F2243
:40034000934303D0002000F0E9F902E0012000F0E5F90E4B5B78DB0703D5002000F0EAF902E0012000F0E6F9084B5B789B0703D5002000F0EBF902E0012000F0E7F9962049
:40038000400000F077FA00F05FFA10BDCC01002010B5012000F012F9012000F08FF9012000F098F9012000F0A1F9012000F010FA012000F0A7F9012000F0B0F9012000F03B
:4003C000B9F9012000F0C2F900F0E8FA00F01EFB10BDC04670B52C4C200000F003F9200000F040FA002000F0F5F8284C200000F031FA00F053F900F091FA00F055FC2449CD
:40040000002000F061FC234800F010FA224800F0CBF9224D280000F0B3FA280000F0E8FA002000F0D7F8200000F014FA62B61C48037802221343D9B204230B43DBB2802102
:4004400049420B4303704378134343701548017810231943447801232343C9B2202421430170DBB21A4342700F4B1868FA21890000F072FD0029F7D10B4B1A680B490C4843
:4004800000F0A4FDF0E7C0461027000088130000C9010000B5020000D901000091030000D0010020CC010020640100202C180000B0010020F0B50025002711E0BB00C658DA
:4004C000F3B2FF22964308E06A008A181478A419527822700135013BDBB2002BF4D10137032FEBD9F0BDC04610B50A00002100F065FD10BD10B500F035FD03680C2B00D18B
:40050000FEE7FEE710B50300084A1068C318084A9A1A802A02DC054A136005E000F022FD0C2303600120404210BDC046C4000020D801002070B50F4E0F4D13E029686B6826
:40054000AC68002202E001C901C30432A242FAD1E868002202E0002102C304328242FAD11035013E002EE9D100F002FDFFF732FFFEE7C046010000001419000010B500236E
:400580000AE0032B03D89A000949505800E009489900094A885001332F2BF2D9FFF77CFD8022D205116801230B43136010BDC04600000000F50400000000002004490A6875
:4005C0007F231A40C301D8B2104308607047C046000004400004000C014B18607047C046080105400004000C014B18607047C046140105400004000C014B18607047C0469A
:400600000C01054070B504000D0000F017FCAC40024B1C6000F016FC70BDC0460800054010B500F00BFC064A116801230B43136000F008FC18210120FFF7E4FF10BDC04694
:4006400000000540014B18607047C0463801054010B50D4C8023DB042360236823600020FFF7B8FF236823600C22084B1A600020FFF7E8FF3122064B1A600648FFF7B2FF1F
:400680000548FFF7B7FF10BD000105402401054028010540102700008813000010B5064B1B78002B04D1FFF7D3FF0122024B1A70FFF7B6FF10BDC0466C01002004490A684F
:4006C000D2B240239A43800118401043086070470000044004490A68D2B220239A43400118401043086070470000044004490A68D2B210239A4300011840104308607047D7
:400700000000044004490A68D2B204239A43800018401043086070470000044004490A68D2B202239A434000184010430860704700000440044A1368DBB201218B4308407F
:40074000184310607047C0460000044004490A687F231A40C301D8B2104308607047C04600030440014BD8647047C0460000002010B5040000F062FB044A13689B009B0863
:40078000A4071C43146000F05DFB10BD00E400E00822014B1A60704700E100E00822014B1A60704780E100E010B50400FFF7F6FF2000FFF7D7FF0320FFF7DAFFFFF7E8FF23
:4007C00010BDC0460822014B1A60704780E200E004490A68D2B208239A43C000184010430860704700000440014B18647047C0460000002010B5040000F020FB044A1368E2
:40080000C0218B43A4011C43146000F01BFB10BD00E400E00122014B1A60704700E100E00122014B1A60704780E100E010B50400FFF7F6FF2000FFF7D7FF0320FFF7DAFF26
:40084000FFF7E8FF10BDC0460122014B1A60704780E200E00004000C014B18607047C046880105400004000C014B18607047C046940105400004000C014B18607047C0468B
:400880008C01054070B504000D0000F0D7FAAC40024B1C6000F0D6FA70BDC0460800054010B500F0CBFA064A116804230B43136000F0C8FA18210420FFF7E4FF10BDC04694
:4008C00000000540014B18607047C046B801054010B50D4C8023DB042360236823600020FFF7B8FF236823600C22084B1A600020FFF7E8FF3122064B1A600648FFF7B2FF1D
:400900000548FFF7B7FF10BD80010540A4010540A8010540102700008813000010B5064B1B78002B04D1FFF7D3FF0122024B1A70FFF7B6FF10BDC0466D010020014B186541
:400940007047C0460000002010B5040000F076FA044A1368C0218B43A4011C43146000F071FA10BD04E400E01022014B1A60704700E100E01022014B1A60704780E100E031
:4009800010B50400FFF7F6FF2000FFF7D7FF0320FFF7DAFFFFF7E8FF10BDC0461022014B1A60704780E200E0014B98647047C0460000002010B5040000F040FA044A116825
:4009C000044B0B40A4051C43146000F03BFA10BD00E400E0FFFF3FFF0422014B1A60704700E100E00422014B1A60704780E100E010B50400FFF7F6FF2000FFF7D5FF0320E6
:400A0000FFF7D8FFFFF7E8FF10BDC0460422014B1A60704780E200E01F2318401E3B8340014A13607047C04600E100E001BE704770B504000D000F2802D90020FFF7F6FF99
:400A4000A40080239B059C4664442068256070BD70B504000D001F2802D90020FFF7E6FF1034A40080239B059C4664442068256070BDC04610B5034B1B7B584300F0D4F982
:400A800010BDC046C8000020F0B557464E46C0B483B0040000F0D2F90190E71E2D2F74D83F4B1B78DBB29C4208D83E4B1B78DBB29A463D4B1B78DBB2994631E03B4B1B785F
:400AC000DBB29C4208D83A4B1B78DBB29A46394B1B78DBB2994623E0374B1B78DBB29C4208D8364B1B78DBB29A46354B1B78DBB2994615E0334B1B78DBB29C4208D8324B72
:400B00001B78DBB29A46314B1B78DBB2994607E02F4B1B78DBB29A462E4B1B78DBB299462D4BDE5D2F2E09D92A2C07D919222B4B1A60052000F078F9192503E0274B1D6870
:400B40003F231D40B54206D9234BDA5D234B1A60052000F069F91F4B9C4664442378DBB21F4A13601F4B52461A601F4B4A461A600520FFF77FFFB5420AD2174BDA5D174B8D
:400B80001A60052000F050F902E00020FFF74EFF019800F057F903B00CBC91469A46F0BDC0F1FF0FC1F1FF0FC2F1FF0FC3F1FF0FC4F1FF0FC5F1FF0FC6F1FF0FC7F1FF0F4C
:400BC000C8F1FF0FC9F1FF0FCAF1FF0FCBF1FF0FCCF1FF0FCDF1FF0F8C1800002CFF0B4028FF0B401CFF0B4020FF0B40024A116802230B431360704710E000E010B5FFF7F3
:400C0000F5FF034A116801230B43136010BDC04610E000E00002000A014B18607047C04614E000E0024B1868000C01231840704710E000E010B5FFF7F5FF01280BD107E09A
:400C4000A300054A9B58002B00D09847013400E00024042CF4D910BD700100200022014B1A60704718E000E010B5002304E0990000200A4A88500133042BF8D908490F2045
:400C8000FFF7D6FE074B1869FA21890000F0DEF8FFF7C0FFFFF7E2FF10BDC04670010020350C0000C800002010B5064B5B69002B04D1FFF7D9FF0122024B5A61FFF79EFFAE
:400CC00010BDC04670010020024A8300985899507047C04670010020034B1868C0231B02184000D00120704700010B4010B500F0A5F8044A1368C02109020B43136000F0C8
:400D0000A1F810BD00010B4010B500F097F808490A68084B1A408024E40122430A600A6813408022120213430B6000F08BF810BD00010B40FF3FFFFF70B5050000F07EF861
:400D40000400FFF7C9FF002803D0FFF7DDFF012100E0002108482840084A1568084B2B40184310601368012901D1FFF7BFFF200000F068F870BDC0460404040010020B407A
:400D8000FBFBFBFF10B5244B1B685B0715D5234B1B685B070ED5224BD969042001401F4C22688A432260DA698243DA611B69002B00D098470420FFF7BFFF174B1B685B05F4
:400DC00018D5164B1B685B0510D5154BD9698022D2001140114802688A430260D969114A0A40DA615B69002B00D098478020C000FFF7A2FF084B1B685B030CD5074B1B68E3
:400E00005B0304D5064B9B69002B00D098478020C002FFF791FF10BD10020B40DC00002088010020FFFBFFFF0230800804D0C0460138FDD1C046C046C0467047EFF31080C7
:400E400072B6704780F310887047C046002243088B4274D303098B425FD3030A8B4244D3030B8B4228D3030C8B420DD3FF22090212BA030C8B4202D31212090265D0030BA1
:400E80008B4219D300E0090AC30B8B4201D3CB03C01A5241830B8B4201D38B03C01A5241430B8B4201D34B03C01A5241030B8B4201D30B03C01A5241C30A8B4201D3CB02A3
:400EC000C01A5241830A8B4201D38B02C01A5241430A8B4201D34B02C01A5241030A8B4201D30B02C01A5241CDD2C3098B4201D3CB01C01A524183098B4201D38B01C01AB5
:400F0000524143098B4201D34B01C01A524103098B4201D30B01C01A5241C3088B4201D3CB00C01A524183088B4201D38B00C01A524143088B4201D34B00C01A5241411A8B
:400F400000D20146524110467047FFE701B5002000F006F802BDC0460029F7D076E770477047C046014B18687047C046400100200E4B70B500251E000D4CE41AA410A542EB
:400F800004D0AB00F35898470135F8E700F0B0FC084B00251E00084CE41AA410A54204D0AB00F35898470135F8E770BDFC180000FC180000FC180000041900000300821873
:400FC000934202D019700133FAE770470EB410B59DB002A9029008610B48822488604861012040421FABC881084804CBA400006801938C8100F06EF80023029A13701DB00A
:4010000010BC08BC03B01847FFFFFF7F40010020F0B58E6885B007000C00039201939E4243D890238A89DB001A423ED003250969236801985B1A029363695D43EB0F5D197B
:40104000029B6D1001331B18AB4200D91D00530510D52900380000F041FB061E14D0029A216900F0D0FAA289194B134080221343A38112E02A00380000F090FB061E0CD18C
:401080002169380000F0DEFA0C23402201203B60A38940421343A38117E0029B2661F61826606561019EED1AA560019BB34200D21E0032000399206800F0AEFA0020A36877
:4010C0009B1BA36023689E19266005B0F0BDC0467FFBFFFFF0B59FB0029005938B890F0016001B0610D50B69002B0DD1402100F0F5FA38603861002804D10C23029A013843
:401100001360D8E040237B61002306AD6B6120336B761033AB7634002378002B03D1A31B049312D003E0252BF9D00134F4E7A31B320039000298FFF76BFF431C00D1B4E013
:401140006A69049B944663446B612378002B00D1ABE00122002352426A6002A95432521801342B60EB60AB601370AB65534E21780522300000F03CFA002807D00123801B31
:4011800083402A68013413432B60EFE72B68DA0604D55322202102A8121811701A0704D553222B2102A81218117022782A2A03D0099B00200A210EE0059A111D126805910C
:4011C000002A01DB099204E05242EA60022213432B6001340BE02278303A092A04D84B4301349B180120F6E7002800D0099323782E2B1ED163782A2B0AD1059B02341A1D51
:401200001B680592002B01DA01235B42079310E000230A201A0001346B6021783039092904D84243013452180123F6E7002B00D00792234E21780322300000F0D9F90028CA
:4012400006D04023801B83402A68013413432B60217806221B48661C297600F0C9F9002812D0194B002B06D10722059B073393430833059314E005AB00933A00134B290024
:40128000029800E000BF07E005AB00933A000F4B2900029800F08AF80390039B013304D06B69039A9B186B6135E7BB890B985B0601D5012040421FB0F0BDC046BC180000A6
:4012C000C2180000C61800000000000011100000F7B5170001938A680B6900900C00934200DA130022003B6043321278002A01D001333B6023689B0602D53B6802333B60FE
:40130000062523681D401ED0230043331B785A1E9341226892061CD53020E1184331087021005A1C45310978A2184332023311700FE022000123193201990098089EB0472A
:40134000431C0ED00135E3683A689B1A9D42F0DBDAE72200019943320098089DA847431C02D10120404220E006232068E1683A6803400025042B03D18D1AEB43DB171D4090
:40138000A3682269934201DD9B1AED180027BD420AD0220001231A3201990098089EB047431CDED00137F2E70020FEBDF0B58BB006920A0043320793059004920A7E0C0080
:4013C000109B6E2A00D1ABE011D8632A22D009D8002A00D1B5E0582A00D0C5E045310A70814A4FE0642A1DD0692A1BD0BCE0732A00D1AAE009D86F2A29D0702A00D0B3E097
:40140000202209680A43226037E0752A1FD0782A33D0A9E00E001A684236111D196013683370A4E021681A68080606D4490604D5111D19600023D55E02E0111D19601568E8
:40144000002D3BDA2D23049A6D42137036E021681A68080606D4490604D51568111D1960ADB202E0111D196015685F4B227E039308276F2A1DD00A271BE02200782145325D
:4014800011705A4A19680392081D226818600D68100602D4500600D5ADB2D30702D520231A4322601027002D03D1202322689A4322602300002243331A7002E00A274A4BBB
:4014C00003936368A360002B09DB0422216891432160002D05D1049E002B11D07BE0002D79D0049E28003900FFF736FD039B013E5B5C280033703900FFF7A8FC051EF1D1B0
:40150000082F09D12368DB0706D563682269934202DC3023013E3370049B9B1B23612BE009681A68080607D4490605D5111D19601368A28A1A8004E0111D19601368626972
:401540001A600023049E236116E01A68111D1960166800216268300000F04AF8002801D0801B6060636803E0260042363270012323610023049A1370079B09AA0093210087
:40158000069B0598FFF7A4FE431C02D10120404227E02369320006990598079DA847431CF4D0236800259B070FD4099BE068984217DA180015E02200012319320699059803
:4015C000079EB047431CE1D00135E368099A9B1A9D42F0DBE9E72600039B42361B7833708EE70BB0F0BDC046CD180000DE180000C9B28218904204D003788B4202D00130B6
:40160000F8E700207047002310B59A4203D0CC5CC4540133F9E710BD10B5884202D98B18984201D3002305E09B1A013A08D3995C8154FAE7934203D0CC5CC4540133F9E707
:4016400010BD000070B50500002944D00C1F2368002B00DAE418280000F0D8F81E4A13681100002B02D16360146031E0A3420DD92268A018834203D118685B688218226058
:4016800063600C6024E0A24203D813005A68002AF9D11E689819A0420BD12168711858181960824214D110685268411819605A600EE0A04202D90C232B6009E021686018C9
:4016C000824203D1106852684118216062605C60280000F09CF870BDAC010020032370B5CD1C9D43083506000C2D01D20C2501E0002D01DBA94202D90C23336048E03000C4
:4017000000F084F8234B1C681A002100002913D00B685B1B0DD40B2B02D90B60CC181EE08C4202D1636813601AE04B6863600C0016E00C004968E9E7174C2368002B03D111
:40174000300000F051F820602900300000F04CF8431C18D00323C41C9C43A0420DD12560300000F054F8200007220B30231D9043C31A0ED05A42E2500BE0211A300000F0B0
:4017800033F8431CEBD10C233000336000F03FF8002070BDAC010020A8010020F8B506000C001500002904D11100FFF797FF040018E0002A03D1FFF745FF2C0012E000F036
:4017C00027F885420ED929003000FFF787FF071E07D021002A00FFF716FF21003000FFF731FF3C002000F8BD002370B5064C050008002360FEF786FE431C03D12368002BE1
:4018000000D02B6070BDC046D4010020704770470B1F1A68101F002A04DA891804390B68D018043870470000000000004D696C6C69733A20256C646D732E0A0000300F4058
:40184000000400400F400004E230E6306C04720476047880DA80DCE088808A048C048E04940896049C809E0418982088601088448C44C60AC80AD802E20CE60C02330F404B
:4018800006400F4008410F400A430F40030405060708090A0B0C0E0F101112131415161718191B1C1D1E1F2021222325262728292A2B2E2F3031323334354300232D302B81
:4018C0002000686C4C00656667454647003031323334353637383941424344454600303132333435363738396162636465660000F8B5C046F8BC08BC9E4670479101000048
:401900007D050000F8B5C046F8BC08BC9E4670476901000028190000C000002088000000900000000000000000000000D8010020010000000000E02EC05D0000180000007F
:4019400000366E01040404000000000000000000000000000000000000000000000000000000000000000000BA1800000000000000000000000000000000000000000000E4
:4019800000000000000000000000000000000000000000000000000000000000000000000000000000000000E0000020000000000000000000000000000000000000000027
:4019C00000000000000000000000000000000000000000000000000000000000000000000000000000000000000000000000000000000000000000000000000000000000E7
:401A000000000000000000000000000000000000000000000000000000000000000000000000000000000000000000000000000000000000000000000000000000000000A6
:401A40000000000000000000000000000000000000000000000000000000000000000000000000000000000000000000000000000000000000000000000000000000000066
:401A80000000000000000000000000000000000000000000000000000000000000000000000000000000000000000000000000000000000000000000000000000000000026
:0200000490303A
:02000000973235
:0200000490402A
:1000000000000000000000000000000000000000F0
:0200000490501A
:0C0000000002041A119311010422A8C58B
:0200000490600A
:0100000001FE
:00000001FF