:400000000010002011000000210600002106000010B500F025FBC04670B51D4C23688022D20213432360182000F0F4FD2268194B13402360184A194B1A603022184B1A60A2
:40004000103A184B1A60103A174B1A601123174A1360174A136080221206164B1A6000252560154A154B1A60154A164B1A60164A164B1A60164A174B1A601749092000F0B5
:4000800087FD092000F05EFD144B1D6070BDC04600010B40FFFFFBFF0600008004010B400C0202401402024018020240200202402802024008010B40FE0000800000024037
:4000C000FE0000C0400002400C000080800002401700008004000240110F00000C020B4010B572B601222E4B1A7000240FE02D486200131959000B00411889881A5AC318D6
:4001000058880004104300F05FFA0134E4B2012CEDD9244801000C31603000F03BFA224A224B1A6099231B04214A1360214A1360214A1360A222D205204B1A601D22204B30
:400140001A6001321F4B1A601F490B781E32934314221343DBB20B701C4A117816230B43DBB21370FF221A4B1A601A4A1A4B1A6005231A4A13601A4A1360B222194B1A60F8
:40018000194A1A4B1A600222194B1A600D23194A1360194A1360FFF73FFF00F03BFA10BD1C700F40981B000099EE38000C00014000500F4010500F4030500F4038500F406B
:4001C0002000004000800F4001700F4000700F4000000440B66DDB0008000440000104401801044000030440B16DC3000803044018030440000404401804044010B5064C8C
:400200002378002B07D1054B002B02D0044800E000BF0123237010BD4801002000000000841B0000084B10B5002B03D00749084800E000BF07480368002B00D110BD064B33
:40024000002BFBD09847F9E7000000004C010020841B0000C000002000000000024A1368013313607047C0466401002010B5354B1B789B0703D5002000F036FA02E0012098
:4002800000F032FA2F4B1B785B0703D5002000F0ABFA02E0012000F0A7FA2A4B1B781B0703D5002000F0ACFA02E0012000F0A8FA244B1B78DB0603D5002000F0ADFA02E0F1
:4002C000012000F0A9FA1F4B1B789B0603D5002000F014FB02E0012000F010FB194B1B785B0603D5002000F0A3FA02E0012000F09FFA144B1B787F22934303D0002000F002
:40030000A3FA02E0012000F09FFA0E4B5B78DB0703D5002000F0A4FA02E0012000F0A0FA084B5B789B0703D5002000F0A5FA02E0012000F0A1FAFA20400000F0F1F900F072
:40034000D7FA10BDE801002010B5354B1B789B0703D5002000F0C8F902E0012000F0C4F92F4B1B785B0703D5002000F03DFA02E0012000F039FA2A4B1B781B0703D500202D
:4003800000F03EFA02E0012000F03AFA244B1B78DB0603D5002000F03FFA02E0012000F03BFA1F4B1B789B0603D5002000F0A6FA02E0012000F0A2FA194B1B785B0603D5DD
:4003C000002000F035FA02E0012000F031FA144B1B787F22934303D0002000F035FA02E0012000F031FA0E4B5B78DB0703D5002000F036FA02E0012000F032FA084B5B789C
:400400009B0703D5002000F037FA02E0012000F033FAFA20400000F0C3FA00F0ABFA10BDE401002010B5012000F05EF9012000F0DBF9012000F0E4F9012000F0EDF901205B
:4004400000F05CFA012000F0F3F9012000F0FCF9012000F005FA012000F00EFA00F034FB00F06AFB10BDC04670B500F0BFFD3D4C200000F04DF9200000F08AFA002000F06F
:400480003FF9394C200000F07BFA00F09DF900F0DBFA00F0CFFC3549002000F0DBFC344800F05AFA334800F015FA334D280000F0FDFA280000F032FB002000F021F9200037
:4004C00000F05EFA62B600222C4B1A80013A2C4B1A802C4A136852689B1A632B0AD9294B1A685A60254A138801331380244A1388013B1380234A136892689B1A224A93421B
:400500002BD92048036883601C4C2178CB0801225A4001231A40D200073399430B00134323700268194D1A49280000F0FDFE280000F010FE238801332380114A1388013BF6
:4005400013800AE000F0F0FDC0B20028C1D00D4AD368591CD1600D4AD05400F05DFD0028F0D1B6E710270000881300005D020000490300006D02000025040000E801002055
:40058000E401002064010020E7030000C8010020881B0000F0B50025002711E0BB00C658F3B2FF22964308E06A008A181478A419527822700135013BDBB2002BF4D1013721
:4005C000052FEBD9F0BDC04610B50A00002100F0A3FE10BD0C4B1B68002803D080221206134301E05B005B08074A1360074B1B68002803D080229204134301E0044A1340DA
:40060000024A13607047C04680031A4008010B40FFFFFFFD10B50120FFF7DCFF10BDC04610B500F04DFE03680C2B00D1FEE7FEE710B50300084A1068C318084A9A1A802A2F
:4006400002DC054A136005E000F03AFE0C2303600120404210BDC046C4000020F001002070B50F4E0F4D13E029686B68AC68002202E001C901C30432A242FAD1E86800229E
:4006800002E0002102C304328242FAD11035013E002EE9D100F01AFEFFF7E6FEFEE7C04601000000981C000010B500230AE0032B03D89A000949505800E009489900094A33
:4006C000885001332F2BF2D9FFF70AFD8022D205116801230B43136010BDC04600000000210600000000002004490A687F231A40C301D8B2104308607047C0460000044016
:400700000004000C014B18607047C046080105400004000C014B18607047C046140105400004000C014B18607047C0460C01054070B504000D0000F025FDAC40024B1C600F
:4007400000F024FD70BDC0460800054010B500F019FD064A116801230B43136000F016FD18210120FFF7E4FF10BDC04600000540014B18607047C0463801054010B50D4C04
:400780008023DB042360236823600020FFF7B8FF236823600C22084B1A600020FFF7E8FF3122064B1A600648FFF7B2FF0548FFF7B7FF10BD0001054024010540280105405C
:4007C000102700008813000010B5064B1B78002B04D1FFF7D3FF0122024B1A70FFF7B6FF10BDC0467801002004490A68D2B240239A43800118401043086070470000044093
:4008000004490A68D2B220239A43400118401043086070470000044004490A68D2B210239A43000118401043086070470000044004490A68D2B204239A4380001840104332
:40084000086070470000044004490A68D2B202239A434000184010430860704700000440044A1368DBB201218B430840184310607047C0460000044004490A687F231A406D
:40088000C301D8B2104308607047C04600030440014BD8647047C0460000002010B5040000F070FC044A13689B009B08A4071C43146000F06BFC10BD00E400E00822014BBE
:4008C0001A60704700E100E00822014B1A60704780E100E010B50400FFF7F6FF2000FFF7D7FF0320FFF7DAFFFFF7E8FF10BDC0460822014B1A60704780E200E004490A6834
:40090000D2B208239A43C000184010430860704700000440014B18647047C0460000002010B5040000F02EFC044A1368C0218B43A4011C43146000F029FC10BD00E400E03F
:400940000122014B1A60704700E100E00122014B1A60704780E100E010B50400FFF7F6FF2000FFF7D7FF0320FFF7DAFFFFF7E8FF10BDC0460122014B1A60704780E200E011
:400980000004000C014B18607047C046880105400004000C014B18607047C046940105400004000C014B18607047C0468C01054070B504000D0000F0E5FBAC40024B1C604F
:4009C00000F0E4FB70BDC0460800054010B500F0D9FB064A116804230B43136000F0D6FB18210420FFF7E4FF10BDC04600000540014B18607047C046B801054010B50D4CC2
:400A00008023DB042360236823600020FFF7B8FF236823600C22084B1A600020FFF7E8FF3122064B1A600648FFF7B2FF0548FFF7B7FF10BD80010540A4010540A801054059
:400A4000102700008813000010B5064B1B78002B04D1FFF7D3FF0122024B1A70FFF7B6FF10BDC04679010020014B18657047C0460000002010B5040000F084FB044A13687A
:400A8000C0218B43A4011C43146000F07FFB10BD04E400E01022014B1A60704700E100E01022014B1A60704780E100E010B50400FFF7F6FF2000FFF7D7FF0320FFF7DAFF1E
:400AC000FFF7E8FF10BDC0461022014B1A60704780E200E0014B98647047C0460000002010B5040000F04EFB044A1168044B0B40A4051C43146000F049FB10BD00E400E08C
:400B0000FFFF3FFF0422014B1A60704700E100E00422014B1A60704780E100E010B50400FFF7F6FF2000FFF7D5FF0320FFF7D8FFFFF7E8FF10BDC0460422014B1A60704750
:400B400080E200E01F2318401E3B8340014A13607047C04600E100E01F2318401E3B8340014A13607047C04680E100E001BE704770B504000D000F2802D90020FFF7F6FF06
:400B8000A40080239B059C4664442068256070BD70B504000D001F2802D90020FFF7E6FF1034A40080239B059C4664442068256070BDC04670B504000E00032902D90020E4
:400BC000FFF7D4FF1F2C02D90020FFF7CFFF03252540ED00063500F0D5FAA408A400074B9C46644421680323AB4099430B003100A9401943216000F0C9FA70BD00E400E066
:400C000010B5034B1B7B584300F0B2FA10BDC046C8000020F0B557464E46C0B483B0040000F0B0FA0190E71E2D2F74D83F4B1B78DBB29C4208D83E4B1B78DBB29A463D4B47
:400C40001B78DBB2994631E03B4B1B78DBB29C4208D83A4B1B78DBB29A46394B1B78DBB2994623E0374B1B78DBB29C4208D8364B1B78DBB29A46354B1B78DBB2994615E0A0
:400C8000334B1B78DBB29C4208D8324B1B78DBB29A46314B1B78DBB2994607E02F4B1B78DBB29A462E4B1B78DBB299462D4BDE5D2F2E09D92A2C07D919222B4B1A6005208F
:400CC00000F056FA192503E0274B1D683F231D40B54206D9234BDA5D234B1A60052000F047FA1F4B9C4664442378DBB21F4A13601F4B52461A601F4B4A461A600520FFF721
:400D00007FFFB5420AD2174BDA5D174B1A60052000F02EFA02E00020FFF728FF019800F035FA03B00CBC91469A46F0BDC0F1FF0FC1F1FF0FC2F1FF0FC3F1FF0FC4F1FF0F35
:400D4000C5F1FF0FC6F1FF0FC7F1FF0FC8F1FF0FC9F1FF0FCAF1FF0FCBF1FF0FCCF1FF0FCDF1FF0F101C00002CFF0B4028FF0B401CFF0B4020FF0B40024A116802230B434F
:400D80001360704710E000E010B5FFF7F5FF034A116801230B43136010BDC04610E000E00002000A014B18607047C04614E000E0024B1868000C01231840704710E000E0FF
:400DC00010B5FFF7F5FF01280BD107E0A300054A9B58002B00D09847013400E00024042CF4D910BD7C0100200022014B1A60704718E000E010B5002304E0990000200A4AA9
:400E000088500133042BF8D908490F20FFF7B0FE074B1869FA21890000F0C6F9FFF7C0FFFFF7E2FF10BDC0467C010020C10D0000C800002010B5064B5B69002B04D1FFF7DA
:400E4000D9FF0122024B5A61FFF79EFF10BDC0467C010020024A8300985899507047C0467C010020034B1868C0231B02184000D00120704700010B4010B500F083F9044AD1
:400E80001368C02109020B43136000F07FF910BD00010B4010B500F075F908490A68084B1A408024E40122430A600A6813408022120213430B6000F069F910BD00010B40F7
:400EC000FF3FFFFF70B5050000F05CF90400FFF7C9FF002803D0FFF7DDFF012100E0002108482840084A1568084B2B40184310601368012901D1FFF7BFFF200000F046F90B
:400F000070BDC0460404040010020B40FBFBFBFF10B5244B1B685B0715D5234B1B685B070ED5224BD969042001401F4C22688A432260DA698243DA611B69002B00D09847F3
:400F40000420FFF7BFFF174B1B685B0518D5164B1B685B0510D5154BD9698022D2001140114802688A430260D969114A0A40DA615B69002B00D098478020C000FFF7A2FF2E
:400F8000084B1B685B030CD5074B1B685B0304D5064B9B69002B00D098478020C002FFF791FF10BD10020B40DC00002094010020FFFBFFFF10B50B20FFF7C4FD10BDC046AC
:400FC00010B500F09FF810BD10B500F03BF810BD10B5054A1368802109060B431360FFF7E9FFFFF7EDFF10BD0000074010B5064B1B78002B04D1FFF7E7FF0122024B1A70D0
:40100000FFF7E6FF10BDC046B4010020014B18687047C04640030740024B1B680F2018407047C04608030740044B1B680F221340082BF9D0024B18607047C046080207408F
:401040004002074010B51A4A1A4B1A6000241A4B1C601A4A1A4B1A601A4A1B4B1A6007221A4B1A601A4B1C60063A1A4B1A601A4A1A4B1A601A4B1C600B20FFF76DFD032178
:401080000B20FFF797FD17490B20FFF781FD164B1C60164B1C60164B1C60164B1C60164B1C60164B1C601A68154B1A8010BDC0460F000002000007404000074001000A0015
:4010C00048000740070200800003074004030740100307404400074007000080000207400402074095110000880E0740C80E0740480F0740080F0740C80F0740880F0740A6
:40110000BC01002005490B68F0229343603A13430B60034B1A88034B1A6070470C000140BC010020880F074010B5FFF775FF002802D0FFF76BFF00E00020054B1A68D82301
:401140009B001A4203D01A00014B1A60002010BDC00F074070B50500002402E0FFF764FF0134285D0028F9D170BDC046000000000230800804D0C0460138FDD1C046C046B3
:40118000C0467047EFF3108072B6704780F310887047C04610B5034B1B68002B00D0984710BDC046B8010020002243088B4274D303098B425FD3030A8B4244D3030B8B42E5
:4011C00028D3030C8B420DD3FF22090212BA030C8B4202D31212090265D0030B8B4219D300E0090AC30B8B4201D3CB03C01A5241830B8B4201D38B03C01A5241430B8B4282
:4012000001D34B03C01A5241030B8B4201D30B03C01A5241C30A8B4201D3CB02C01A5241830A8B4201D38B02C01A5241430A8B4201D34B02C01A5241030A8B4201D30B02C2
:40124000C01A5241CDD2C3098B4201D3CB01C01A524183098B4201D38B01C01A524143098B4201D34B01C01A524103098B4201D30B01C01A5241C3088B4201D3CB00C01AB9
:40128000524183088B4201D38B00C01A524143088B4201D34B00C01A5241411A00D20146524110467047FFE701B5002000F006F802BDC0460029F7D076E770477047C0468F
:4012C000014B18687047C046400100200E4B70B500251E000D4CE41AA410A54204D0AB00F35898470135F8E700F0C4FC084B00251E00084CE41AA410A54204D0AB00F35896
:4013000098470135F8E770BD801C0000801C0000801C0000881C000003008218934202D019700133FAE770470EB410B59DB002A9029008610B4882248860486101204042D4
:401340001FABC881084804CBA400006801938C8100F06EF80023029A13701DB010BC08BC03B01847FFFFFF7F40010020F0B58E6885B007000C00039201939E4243D89023F0
:401380008A89DB001A423ED003250969236801985B1A029363695D43EB0F5D19029B6D1001331B18AB4200D91D00530510D52900380000F041FB061E14D0029A216900F0E5
:4013C000D0FAA289194B134080221343A38112E02A00380000F090FB061E0CD12169380000F0DEFA0C23402201203B60A38940421343A38117E0029B2661F61826606561E1
:40140000019EED1AA560019BB34200D21E0032000399206800F0AEFA0020A3689B1BA36023689E19266005B0F0BDC0467FFBFFFFF0B59FB0029005938B890F0016001B068E
:4014400010D50B69002B0DD1402100F0F5FA38603861002804D10C23029A01381360D8E040237B61002306AD6B6120336B761033AB7634002378002B03D1A31B049312D0EF
:4014800003E0252BF9D00134F4E7A31B320039000298FFF76BFF431C00D1B4E06A69049B944663446B612378002B00D1ABE00122002352426A6002A95432521801342B6059
:4014C000EB60AB601370AB65534E21780522300000F03CFA002807D00123801B83402A68013413432B60EFE72B68DA0604D55322202102A8121811701A0704D553222B213B
:4015000002A81218117022782A2A03D0099B00200A210EE0059A111D12680591002A01DB099204E05242EA60022213432B6001340BE02278303A092A04D84B4301349B18CA
:401540000120F6E7002800D0099323782E2B1ED163782A2B0AD1059B02341A1D1B680592002B01DA01235B42079310E000230A201A0001346B6021783039092904D8424377
:40158000013452180123F6E7002B00D00792234E21780322300000F0D9F9002806D04023801B83402A68013413432B60217806221B48661C297600F0C9F9002812D0194B0A
:4015C000002B06D10722059B073393430833059314E005AB00933A00134B2900029800E000BF07E005AB00933A000F4B2900029800F08AF80390039B013304D06B69039A6F
:401600009B186B6135E7BB890B985B0601D5012040421FB0F0BDC046401C0000461C00004A1C0000000000006D130000F7B5170001938A680B6900900C00934200DA13000D
:4016400022003B6043321278002A01D001333B6023689B0602D53B6802333B60062523681D401ED0230043331B785A1E9341226892061CD53020E1184331087021005A1C16
:4016800045310978A2184332023311700FE022000123193201990098089EB047431C0ED00135E3683A689B1A9D42F0DBDAE72200019943320098089DA847431C02D10120CF
:4016C000404220E006232068E1683A6803400025042B03D18D1AEB43DB171D40A3682269934201DD9B1AED180027BD420AD0220001231A3201990098089EB047431CDED0CC
:401700000137F2E70020FEBDF0B58BB006920A0043320793059004920A7E0C00109B6E2A00D1ABE011D8632A22D009D8002A00D1B5E0582A00D0C5E045310A70814A4FE014
:40174000642A1DD0692A1BD0BCE0732A00D1AAE009D86F2A29D0702A00D0B3E0202209680A43226037E0752A1FD0782A33D0A9E00E001A684236111D196013683370A4E0C6
:4017800021681A68080606D4490604D5111D19600023D55E02E0111D19601568002D3BDA2D23049A6D42137036E021681A68080606D4490604D51568111D1960ADB202E013
:4017C000111D196015685F4B227E039308276F2A1DD00A271BE022007821453211705A4A19680392081D226818600D68100602D4500600D5ADB2D30702D520231A432260B2
:401800001027002D03D1202322689A4322602300002243331A7002E00A274A4B03936368A360002B09DB0422216891432160002D05D1049E002B11D07BE0002D79D0049EBC
:4018400028003900FFF736FD039B013E5B5C280033703900FFF7A8FC051EF1D1082F09D12368DB0706D563682269934202DC3023013E3370049B9B1B23612BE009681A6859
:40188000080607D4490605D5111D19601368A28A1A8004E0111D1960136862691A600023049E236116E01A68111D1960166800216268300000F04AF8002801D0801B60605C
:4018C000636803E0260042363270012323610023049A1370079B09AA00932100069B0598FFF7A4FE431C02D10120404227E02369320006990598079DA847431CF4D0236818
:4019000000259B070FD4099BE068984217DA180015E022000123193206990598079EB047431CE1D00135E368099A9B1A9D42F0DBE9E72600039B42361B7833708EE70BB0CB
:40194000F0BDC046511C0000621C0000C9B28218904204D003788B4202D00130F8E700207047002310B59A4203D0CC5CC4540133F9E710BD10B5884202D98B18984201D39A
:40198000002305E09B1A013A08D3995C8154FAE7934203D0CC5CC4540133F9E710BD000070B50500002944D00C1F2368002B00DAE418280000F0D8F81E4A13681100002BBB
:4019C00002D16360146031E0A3420DD92268A018834203D118685B688218226063600C6024E0A24203D813005A68002AF9D11E689819A0420BD12168711858181960824258
:401A000014D110685268411819605A600EE0A04202D90C232B6009E021686018824203D1106852684118216062605C60280000F09CF870BDC4010020032370B5CD1C9D43C0
:401A4000083506000C2D01D20C2501E0002D01DBA94202D90C23336048E0300000F084F8234B1C681A002100002913D00B685B1B0DD40B2B02D90B60CC181EE08C4202D1AE
:401A8000636813601AE04B6863600C0016E00C004968E9E7174C2368002B03D1300000F051F820602900300000F04CF8431C18D00323C41C9C43A0420DD12560300000F0F5
:401AC00054F8200007220B30231D9043C31A0ED05A42E2500BE0211A300000F033F8431CEBD10C233000336000F03FF8002070BDC4010020C0010020F8B506000C001500EE
:401B0000002904D11100FFF797FF040018E0002A03D1FFF745FF2C0012E000F027F885420ED929003000FFF787FF071E07D021002A00FFF716FF21003000FFF731FF3C0021
:401B40002000F8BD002370B5064C050008002360FEF76EFD431C03D12368002B00D02B6070BDC046EC010020704770470B1F1A68101F002A04DA891804390B68D0180438BC
:401B800070470000000000004D696C6C69733A20256C646D732E0A0000300F40000400400F400004B808BE04D804DF011A208210E270E404E6206C046F8072047880DA8016
:401BC000DCE088808A048C048F80940896049C80A7806E027A01DC0318081B0520885E0263026702830188448C048F04A601C60AC80AD603E20EE60404320F4005330F4020
:401C000006400F4008410F4003420F4010430F40030405060708090A0B0C0E0F101112131415161718191B1C1D1E1F2021222325262728292A2B2E2F30313233343543000E
:401C4000232D302B2000686C4C00656667454647003031323334353637383941424344454600303132333435363738396162636465660000F8B5C046F8BC08BC9E467047AB
:401C800025020000A9060000F8B5C046F8BC08BC9E467047FD010000A81C0000C000002088000000A800000000000000F0010020010000000000E02EC05D00001800000061
:401CC00000366E010404040000000000000000000000000000000000000000000000000000000000000000003E1C00000000000000000000000000000000000000000000D9
:401D000000000000000000000000000000000000000000000000000000000000000000000000000000000000E00000200000000000000000000000000000000000000000A3
:401D40000000000000000000000000000000000000000000000000000000000000000000000000000000000000000000000000000000000000000000000000000000000063
:401D80000000000000000000000000000000000000000000000000000000000000000000000000000000000000000000000000000000000000000000000000000000000023
:401DC00000000000000000000000000000000000000000000000000000000000000000000000000000000000000000000000000000000000000000000000000000000000E3
:401E000000000000000000000000000000000000000000000000000000000000000000000000000000000000000000000000000000000000000000000000000000000000A2
:0200000490303A
:0200000094B2B8
:0200000490402A
:1000000000000000000000000000000000000000F0
:0200000490501A
:0C0000000002041A119311010423A6450C
:0200000490600A
:0100000001FE
:00000001FF